:0300000002094FA3
:0C094F00787FE4F6D8FD7581100209964F
:0A0C1D00C0F9A4B0999282F880900B
:100B6D00010A00010B00010800010D00010E00013A
:0B0B7D000F00011000010C0001090036
:100A6C0075F00A120B4BFF3395E0FE741D2FF582C7
:0D0A7C00740C3EF583E493F5A07F0A7E0024
:100A8900D3EF9400EE940040147D327C00ED1D708C
:0D0A9900011CED4C70F7EF1F70E61E80E3AE
:010AA600222D
:100AA700758901758C3C758AB0D2AFD2A9D28C7585
:100AB70080FFE50D7003120BBBE50DB40103120BAC
:100AC700A3E50DB40203120B89E50DB40303120B62
:0A0AD700D1E50DB40403120BE72271
:100BFD00C2B1C2B07580FFC2B2C2B3C285C287C2D4
:020C0D00AF2214
:100BBB00C2B0D2B17580FFC280050EC2B2C2B3E41F
:060BCB00F50B750A05227E
:100BA300D2B0D2B17580FFC286C281D2B2C2B3E4E1
:080BB300F50B750A1EF509227D
:100B8900D2B0D2B17580FFC282C2860510D2B2C27C
:0A0B9900B3E4F50B750A14F5092208
:100BD100C2B1C2B07580FFC283C284C2B2D2B3E4D3
:060BE100F50B750A1E224F
:100BE700C2B0C2B17580FFC284050FC2B2C2B3E4FE
:060BF700F50B750A052252
:100B1B007580FFE50DC394054003E4F50DE50D70FD
:100B2B0002C280E50DB40102C281E50DB40202C21E
:100B3B0082E50DB40302C283E50DB40402C2842224
:1009DB00E4F50BF50AC2B2C2B3120A2420B5107F9C
:1009EB00057E00120A8920B50630B5FD020AA72044
:1009FB00B6107F057E00120A8920B60630B6FD02BE
:100A0B000BFD20B7D77F057E00120A8920B7CD30AA
:090A1B00B7FD050D120B1B80C391
:100AE10020B4107F057E00120A8920B40630B4FDBF
:100AF1001209DB20B5107F057E00120A8920B50698
:100B010030B5FD120AA720B6107F057E00120A89B2
:0A0B110020B60630B6FD120BFD22DF
:100A2400759001E50B120A6C759002E50B75F00ADE
:100A3400120B4BAFF0EF120A73759004E50A120A19
:100A44006C759008E50A75F00A120B4BAFF0EF33A2
:100A540095E0FE741D2FF582740C3EF583E493F546
:080A6400A07F0A7E00020A894E
:0E0C0F00D280C2B0C2B1120A24120AE180F8EB
:03000B00020800E8
:10080000C0E0C0D0758C3C758AB00508E50864145A
:10081000600302094AF508150AE50D64016006E562
:100820000D640270420509E50924FB602624FE6080
:100830001A24FB601E24FE601424FB601624FE6054
:100840001424FB600E2419701680028008D2B2C2F4
:10085000B3800C8006C2B2D2B38004C2B2C2B3E588
:1008600009B41E03750900E50A7009E50B6005155A
:100870000B750A3BC3E50A648094805031E50B7028
:100880002DE50D7029E50E24FE6012146011146030
:100890001024037014750D01120BA38011800280C7
:1008A00000750D02120B898005750C01C287C3E526
:1008B0000A64809480500FE50B700BE50DB40106BF
:1008C000750D04120BE7C3E50A648094805027E598
:1008D0000B7023E50DB4021EE51024FE60091460C0
:1008E000082402700C80028000750D04120BE78052
:1008F00005750C01C287C3E50A648094805033E516
:100900000B702FE50D64047029E50F24FE600C14B4
:10091000600B1460102403701480028000750D00B9
:10092000120BBB800D750D03120BD18005750C01E8
:10093000C287C3E50A64809480500FE50B700BE515
:0F0940000DB40306750A00120BFDD0D0D0E032C3
:10095B00020C0FE493A3F8E493A34003F68001F297
:10096B0008DFF48029E493A3F85407240CC8C3339D
:10097B00C4540F4420C8834004F456800146F6DF6C
:10098B00E4800B0102040810204080900B6DE47E84
:10099B00019360BCA3FF543F30E509541FFEE49361
:1009AB00A360010ECF54C025E060A840B8E493A328
:1009BB00FAE493A3F8E493A3C8C582C8CAC583CA53
:1009CB00F0A3C8C582C8CAC583CADFE9DEE780BE0B
:010B8800006C
:100B4B00C2D530F707B2D563F0FF05F030E70CB232
:100B5B00D5F4048463F0FF05F080018430D502F4F2
:020B6B00042262
:00000001FF
